:100000000C94D6020C9466270C940E030C940E03E9
:100010000C940E030C940E030C940E030C940E031C
:100020000C940E030C940E030C9449210C9405219E
:100030000C9454220C940E030C940E030C940E0397
:100040000C940E030C940E030C940E030C940E03EC
:100050000C940E030C9430220C940E030C940E039B
:100060000C940E030C940E030C940E030C940E03CC
:100070000C940E030C940E030C940E030C940E03BC
:100080000C940E030C940E030C940E030C940E03AC
:100090000C940E030C940E030C940E030C940E039C
:1000A0000C940E030C940E030C940E03207829007C
:1000B00035001E001F0020002100220021780000D2
:1000C00000001400070015001A0005002278000047
:1000D0000000042816240B2217210A00A9000000A2
:1000E00000001D001B00100006001900AA000000FF
:1000F0004600000000002B00284229412300240074
:100100002500260027002D002E002A000D000900E2
:100110001800130033002F00300031001C00113193
:10012000083212340C380000000000000E000F00EE
:100130003600370038005200000000002C412A42EF
:1001400000004C005000510000004F000000000073
:1001500000003A003B003C003D003E000000000073
:10016000000038021E021F022002310200000000BF
:1001700000003500210222022302310000000000AD
:1001800000003502240225020000000000000000EB
:100190000000000000000000000000003F004000E0
:1001A00041004200430044004500000038002E009A
:1001B0002D002E022D020000000000003402260255
:1001C0002F022F003602000000000000340027023A
:1001D0003002300037020000000000000000000084
:1001E000000000000000000000000000000000000F
:1001F00000000000000000000000000000000000FF
:10020000000000001E001F00200000000000000091
:100210000000000021002200230000000000000078
:10022000000000002400250026000000000000005F
:100230000000000000000000000027000000000097
:10024000000000000000000000000000B600B70041
:10025000AE00AD00000000000000000050005100A2
:1002600052004F0000000000000000004E004D0052
:100270004A004B00000000000000000000000000E9
:100280000000000000000000000000001E0F05003C
:10029000047F3F1F643214643214783C1E1E140A1B
:1002A0000500010101010101010101020202020236
:1002B000020202020303030303030303040404040E
:1002C00004040405050505050606060606070707D6
:1002D000070708080808090909090A0A0A0B0B0B8D
:1002E0000C0C0C0D0D0D0E0E0E0F0F0F101011112A
:1002F00011121213131414151516161717181819AE
:10030000191A1A1B1B1C1D1D1E1E1F202021222214
:10031000232424252626272829292A2B2C2D2D2E57
:100320002F30313232333435363738393A3B3C3D71
:100330003E3F404142434445464748494A4C4D4E62
:100340004F50515354555658595A5B5D5E5F616228
:1003500064656668696B6C6D6F7072737577787AB7
:100360007B7D7E8082838587888A8C8E8F91939512
:1003700096989A9C9EA0A2A3A5A7A9ABADAFB1B336
:10038000B5B7BABCBEC0C2C4C6C9CBCDCFD1D4D616
:10039000D8DBDDDFE2E4E7E9EBEEF0F3F5F8FAFDB8
:1003A000FFFFAA7F5540000102030C0D0E0F04054C
:1003B000060708090A0B2223252628292A2C2D2F77
:1003C0003032333536383A3B3D3E4042434547496B
:1003D0004A4C4E5051535557595A5C5E60626466A0
:1003E00068696B6D6F71737577797B7D7F818385AC
:1003F00087898A8C8E90929496989A9C9E9FA1A3AE
:10040000A5A7A8AAACAEAFB1B3B4B6B8B9BBBCBED1
:10041000BFC1C2C3C5C6C7C9CACBCCCDCED0D1D24D
:10042000D2D3D4D5D6D7D7D8D9D9DADADBDBDBDC4F
:10043000DCDCDCDCDDDDDDDDDCDCDCDCDCDBDBDBFB
:10044000DADAD9D9D8D7D7D6D5D4D3D2D2D1D0CE5B
:10045000CDCCCBCAC9C7C6C5C3C2C1BFBEBCBBB960
:10046000B8B6B4B3B1AFAEACAAA8A7A5A3A19F9EDE
:100470009C9A98969492908E8C8A89878583817FA6
:100480007D7B79777573716F6D6B69686664626087
:100490005E5C5A5957555351504E4C4A4947454353
:1004A00042403E3D3B3A3836353332302F2D2C2AF0
:1004B00029282625232205010980A1018503190188
:1004C0002AB700150126B700950175108100C005F7
:1004D0000C0901A101850419012AA002150126A019
:1004E00002950175108100C005010906A1010507EB
:1004F00019E029E71500250195087501810295018C
:10050000750881010507190029FF150026FF0095D0
:1005100006750881000508190129051500250195B2
:100520000575019102950175039101C009023B0017
:10053000020100A0FA0904000001030101000921E1
:10054000110100012244000705810308000109048C
:100550000100010300000009211101000122320005
:1005600007058203200001120100020000000810AC
:10057000CB58130001010200011C0346006F006C00
:100580000064004B00420020005200650076002EFF
:10059000002000310000000E034B00650065006282
:1005A0000069006F000000040309040011241FBE4D
:1005B000CFEFDAE0DEBFCDBF04B603FE18C08091F6
:1005C000A9039091AA03A091AB03B091AC0387302B
:1005D000904BA740B04B59F41092A9031092AA0374
:1005E0001092AB031092AC03E0E0F8E3099523E02E
:1005F000AAEEB1E001C01D92A93AB207E1F711E0FD
:10060000A0E0B1E0ECE9F5E502C005900D92AA3E4C
:10061000B107D9F70E947B220C94822A0C94000027
:10062000482F2091A50390916C0357E0291302C035
:1006300080E0089530E0529FF001539FF00D1124A7
:10064000E359FC4F8181681306C08081481303C0C1
:1006500085818111EECF2F5F3F4F2770E7CFE8ED07
:10066000F0E080818E7F80831092E2001092DA00A9
:100670001092E100A0EEB0E08C9181608C938081BB
:100680008F77808319BCA7EDB0E08C918E7F8C931F
:1006900080818F7E80831092570308952091E4001B
:1006A0003091E50095E6A9012091EC00822F817040
:1006B00020FF06C08091E80080FF06C080E008951A
:1006C0002091E80022FD1AC080916203882389F0FE
:1006D000853089F08091EB0085FD0FC02091E4000A
:1006E0003091E50042175307F9F29150E1F684E0AA
:1006F000089582E0089583E0089581E0089580914F
:10070000640387FF13C08091E80082FF06C08091D8
:10071000E8008B778093E80004C080916203811128
:10072000F2CF0895809162038823D9F38091E80085
:1007300080FFF8CF8091E8008E77ECCF982F9093D0
:10074000E900242F762F50E0891731F07091EC00EA
:100750002091ED005091F00021FD07C09F5F973080
:1007600071F78093E90081E008953091EB003E7FBE
:100770003093EB003091ED003D7F3093ED003091F0
:10078000EB0031603093EB007093EC002093ED00B0
:100790005093F0002091EE0027FDE0CF80E0089517
:1007A000B0E0A0E0E6EDF3E00C948C28C8EDD0E0DA
:1007B00088818F7E8883E7EDF0E08081816080838F
:1007C00084E082BF81E08093570388818E7F888395
:1007D00002EE10E0F80110821092DA0081EEC82ECD
:1007E000D12CF601108288818F7788838881806878
:1007F000888388818F7D888319BC10926203109250
:100800006303109261031092600390EEE92EF12CC5
:10081000F70180818B7F808388818160888342E0BB
:1008200060E080E00E949E03F60180818E7F8083DD
:10083000F801808181608083808188608083F701F6
:1008400080818E7F8083888180618883CDB7DEB789
:10085000E8E00C94A828FC0180916A0390916B0356
:1008600086179707A0F06115710529F49091E800AB
:100870009E779093E80090E06115710551F4911115
:1008800008C08091E80082FF34C080E00895BC0178
:10089000F2CF809162038823C1F18530C1F180914C
:1008A000E80083FD30C08091E80082FDEACF8091AE
:1008B000E80080FFE1CF8091F3002091F200382F13
:1008C0006115710519F02830310558F091E0283094
:1008D000310509F090E02091E8002E772093E800A0
:1008E000CBCF81918093F100615071092F5F3F4F11
:1008F000E7CF80916203882341F0853041F08091F9
:10090000E80083FFBECF81E0089582E0089583E090
:1009100008950895089508959C014FB7F894809123
:10092000530390915403A0915503B09156034FBFC8
:10093000821B930B08952FB7F89460915303709125
:10094000540380915503909156032FBF08952FB7FC
:10095000F8948091530390915403A0915503B09162
:1009600056032FBF0895809163010895EEEEF1E0E4
:100970009191891303C0DF0111971C9291E0E43F2C
:10098000F907B1F70895AEEEB1E0EFEF90E02D91E9
:10099000821751F0EF3F19F4211101C0E92F9F5F39
:1009A0009630A9F7EF3F09F408950E2E000CFF0BC7
:1009B000E451FE4F82830895A3E0B0E0E2EEF4E05C
:1009C0000C94922820915003309151032817390735
:1009D000A1F09093510380935003E0914E03F09166
:1009E0004F03309751F024E029839B838A8300844E
:1009F000F185E02DCE01019609952396E2E00C9455
:100A0000AE28A3E0B0E0E7E0F5E00C949228209156
:100A10004C0330914D0328173907A1F090934D03F3
:100A200080934C03E0914E03F0914F03309751F0C7
:100A300023E029839B838A830084F185E02DCE0106
:100A4000019609952396E2E00C94AE2880914A0322
:100A5000882359F0E0914E03F0914F03309729F02D
:100A60000190F081E02D0995089580E00895FC0142
:100A7000680F791F8FEF91E32191822728E030E002
:100A800087FF09C0880F892721503109C9F7E61768
:100A9000F70791F70895880FF7CFFC01EE0FFF1FBE
:100AA000E80FF91FE65EFC4F6183408322830895BF
:100AB0006E9A089525EF611126EF8FB190E02F70A7
:100AC00002C0959587952A95E2F78170089525EFE4
:100AD000611126EF30B32F7081E090E001C0880FE4
:100AE0002A95EAF7982F9095932390BB91B3892B81
:100AF00081BB089590911403E92FF0E04091150314
:100B00009F012F5F3F4F2370332742171306A9F031
:100B1000EA5EFC4F282F2F7780818078822B60FB44
:100B200087F980839F5F93709093140380911203E1
:100B30008F5F8093120381E0089580E008958F9283
:100B40009F92AF92BF92EF92FF920F931F93CF931A
:100B5000DF938430B0F5811135C0909180009F778C
:100B600090938000A0918600B0918700282F30E0FC
:100B70000E94732A23E030E040E050E00E94512AB6
:100B800089019A0180918600909187006CE070E065
:100B90000E94D52860177107C8F0C80169E070E0AD
:100BA0000E94D5287093890060938800DF91CF91CF
:100BB0001F910F91FF90EF90BF90AF909F908F90FB
:100BC000089583E0909180009068CACF809186005C
:100BD00090918700E0908600F0908700E091860079
:100BE000F0918700C6E0D0E0BE010E94D528060F34
:100BF000171F211D311D4801590185E0880C991CE2
:100C0000AA1CBB1C8A95D1F7C701BE010E94D5283A
:100C10009F0150E040E0260F371F411D511DC501C7
:100C2000B4010E94512A49015A01E0918600F091D5
:100C30008700CA01B9010E94B9289B01AC01DF01FC
:100C40000E943E2A9B01AC01C501B4010E94B92853
:100C50002FE096958795779567952A95D1F700911E
:100C600086001091870030E020E00617170728075C
:100C7000390708F097CF609186007091870092CF76
:100C8000843008F083E0909111039770282F220F91
:100C9000220F220F922B90931103987F21E009F4E9
:100CA00020E09091110320FB90F9909311030E9492
:100CB0009F050895E4EBF2E01182828184608283D3
:100CC0000895CF938091090380FF04C00E94CF0D47
:100CD000CF910895C0915F0180916001C817B0F76E
:100CE000EC2FF0E0EA55FC4FE49180915D01E81BA8
:100CF00020E040E060E08E2F90E00E944D05CF5F45
:100D0000EBCF0F931F93CF93DF93D82F162F042F82
:100D100080910903C0915F0180FD15C0DF91CF91E3
:100D20001F910F910895EC2FF0E0EA55FC4FE491EC
:100D300080915D01E81B202F412F6D2F8E2F90E0B9
:100D40000E944D05CF5F80916001C81760F30E943B
:100D50006106E4CFCF93DF93EC0140910C039C81BB
:100D6000892F817090FD842F692F627091FD642F0F
:100D700092FF40E00E9481068C8190E0019687708E
:100D800099278C83DF91CF91089580910903982F43
:100D90009C7F29F4837084608093090308958C3AC2
:100DA000E8F38370886AF8CFB0E0A0E0EAEDF6E0FF
:100DB0000C948C289B01E82FF0E0EF55FD4F31118A
:100DC00009C0E4918E2F7E2F6E2FCDB7DEB7E8E0FD
:100DD0000C94A828E32EF12CE491FE2F0E2F10E0A6
:100DE00046E0649FC0011124CFEFD0E0BE010E9415
:100DF000D528AB01822F90E0880F991F25E5249F0D
:100E0000B001259F700D1124861B970B982F990F09
:100E1000980FBE016E197F09609FD001619FB00DD0
:100E2000709FB00D11248B2F399F90011124232F17
:100E30003327BE01621B730B609F9001619F300DD1
:100E4000709F300D11246E01C91AD108CE9CB001DB
:100E5000CF9C700DDE9C700D1124672F7727C61B69
:100E6000D70BC09F7001C19FF00CD09FF00C1124D4
:100E70007F2D42305105A1F050F44115510509F480
:100E8000A3CF4130510581F07B2F832F9DCF44307C
:100E9000510569F080F04630510509F495CFF4CF43
:100EA000EB2F8F2D7F2F90CF7E2FE32F8DCFEF2D28
:100EB0007B2F8F2F89CF732FEB2FFBCF762F909126
:100EC000090390FF0AC0682F842F0E94D406962F32
:100ED000672F482F892F0E9481060895CF93DF93B3
:100EE000EC01E9E0F3E0438162818C810E945E07BE
:100EF0008C818F5F8C83DF91CF910895CF93DF93A7
:100F0000EC01EC81F0E0EA54FC4F4491E9E0F3E0BD
:100F1000628181810E945E078C818F5F8C83DF916B
:100F2000CF910895CF93DF93762FE901682F842F17
:100F30000E94D406472FFE01FF27EA55FC4FE4919B
:100F400090915D01E91B282F8E2F90E00E944D05A6
:100F5000DF91CF9108950F931F93CF93DF938C016F
:100F6000D0E0C0E0909161019C171D0609F074F477
:100F70000E946106F801848190E0019681709927B2
:100F80008483DF91CF911F910F910895F8014481DF
:100F900020915F012C0F3D2F311D60910B0380913B
:100FA0000A0396959C171D0649F044F0442341F02E
:100FB00040910C030E9492072196D4CF4423C1F3A1
:100FC00040E0F8CFB0E0A0E0E8EEF7E00C9488282D
:100FD000EC014C81042F10E09801D8010E94732A83
:100FE0009B01AC010E943E2A4B015C01E0E2F0E073
:100FF000E01BF10BA5E5B0E0AC019B010E943E2A8D
:101000006B017C019F01DF010E9403299B01AC0160
:101010000E94492A9B01AC01280D391D4A1D5B1D08
:10102000C701B6010E94512AF22E822F90E039E2C8
:101030003F1520F143E0249F900111243595279519
:10104000122F109500E085E5E82EEF1880916101E0
:10105000081720F10E9461069C8181E0992319F014
:10106000903219F48FEF80935C0180915C01890FBD
:101070008C83CDB7DEB7ECE00C94A42825E530E0F6
:10108000A901481B590BCA019A01220F331F280FCF
:10109000391F37FFD3CF2F5F3F4FD0CF8E2D01FDAC
:1010A0008F2D20915F01200F3327331F412F609137
:1010B0000B030E9492070F5FC9CFEF92FF921F931D
:1010C000CF93DF93EC018C81811109C081E08C8387
:1010D0001092B80292E090935B0180935A011091B4
:1010E0005F0180916001181758F110E06091610173
:1010F0001617B8F10E94610680915A012091B8023A
:10110000280F2093B80290915B01980F90935B0198
:10111000191654F4022E000C330B4091610141501A
:10112000550B2417350734F0819580935A0181308F
:1011300009F41C82DF91CF911F91FF90EF900895E9
:10114000E12FF0E0EA55FC4FE49180915D01E81B4E
:1011500020E040E060E08E2F90E00E944D051F5F90
:10116000C0CFE12EF12C70E0C7010E94E928209148
:101170005F01280F30E08091B802082E000C990B17
:10118000E816F90694F080915B01082E000C990B8B
:101190008E159F0554F040910C0360910B038091D4
:1011A0000A030E9492071F5FA1CF2A553C4FF90105
:1011B000849190915D01891B20E040E060E090E027
:1011C0000E944D05F0CFB0E0A0E0E9EEF8E00C940D
:1011D0008B28EC018A811FEF80FF11E08C81811147
:1011E00009C0113001F58091610181508093B702EF
:1011F00081E08C8300E0809161010817B8F00E94C3
:1012000061068091B702113009F05BC0811154C0B2
:101210008091610181508093B7021C82CDB7DEB707
:10122000E9E00C94A7281092B702E2CFE0915F01A9
:10123000E00FF0E0EA55FC4FE49180915D01E81B7E
:1012400020E040E060E08E2F90E00E944D0594E0A9
:10125000E92EF12CB12CC02ED12C8091B7028B0D30
:10126000813124F18F70082E000C990BC816D90615
:10127000B1F420915F012C0D3D2D311D80910C03A7
:101280008E9DA0018F9D500D112455954795559524
:10129000479560910B0380910A030E949207B10E5B
:1012A00081E0E81AF108C9F60F5FA5CF87FFDBCF11
:1012B00090916101890FD7CF81508093B7021C8331
:1012C000ADCF90E001966091610170E00E94E92845
:1012D0008093B7028C83A2CFEF92FF921F93CF939C
:1012E000DF93EC0110E0EE24EA94F12C60916101AF
:1012F000161770F00E9461069A818C8190FF1EC0C3
:101300008F5F8C83DF91CF911F91FF90EF900895B5
:1013100020915F01210F3327331F70E0C7010E9426
:10132000E928962F8C8140910C0360910B03199F43
:10133000800D11240E9492071F5FD8CF8150E1CF0A
:1013400080E0089581E08093AC020895F894E82F3E
:10135000E295EF70F0E031A1282F2F7081E090E04E
:1013600001C0880F2A95EAF7982F9095932391A3AF
:1013700092A1892B82A3789408950F931F93809153
:101380004A03882329F00E949B041F910F9108951E
:101390000E949B04009177021091780220917902BB
:1013A00030917A02600F711F821F931FEECF8091E0
:1013B0004A03882319F00E94A70408950E94BD09DA
:1013C000CB01089590918B0292FF10C041E0282F2D
:1013D0002471243009F040E031E0282F28712830B2
:1013E00009F030E0431711F02CE0822793FF10C082
:1013F00041E0282F2471243109F040E031E0282F0A
:101400002871283109F030E0431711F02CE08227D1
:1014100030918C0230FF10C051E0282F2171213013
:1014200009F050E041E0282F2871283009F040E011
:10143000541711F029E0822731FF10C041E0282F16
:101440002171213109F040E031E0282F2871283145
:1014500009F030E0431711F029E0822794FD877EE0
:10146000089582389105B9F1B0F48133910509F4FA
:101470007DC048F48932910509F46DC08A32910526
:1014800009F47BC008958533910509F45FC0893361
:10149000910509F10895833E9105D9F138F4803E14
:1014A000910529F1823E910579F10895863E9105D5
:1014B000D9F1873E910509F43EC0843E910541F57E
:1014C00020918C0221FF24C080918B0284FD19C0E1
:1014D00087EE90E0089520918B02237009F05AC0A6
:1014E00020918C0223FF14C089E290E0089520919E
:1014F0008B0220FD38C030918C0230FF09C024FFE0
:1015000043C090E080E0089520918B0222FDF7CF48
:10151000089520918B0222FD3AC030918C0230FD5B
:1015200039C024FFF5CFEDCF20918B0223FFF0CF00
:1015300024FDE7CFCDCF20918B0223FD2EC030912B
:101540008C0231FFEECF84EE90E0089520918B0263
:1015500025FFDECFC9CF20918B0225FD21C0209130
:101560008C0223FFD5CF89E390E0D2CF20918B026C
:1015700026FFCECF8AE290E0089520918B0226FFCD
:10158000C7CF81E390E0089583EE90E0089582EE66
:1015900090E0089580EE90E0089586EE90E0089542
:1015A00085E390E008957A30C8F46830B8F4833069
:1015B000C0F4E72FF0E09AE0899FE00DF11D1124BF
:1015C00083E0EE0FFF1F8A95E1F7E60FF11DEE0FA6
:1015D000FF1FE455FF4F85919491089580E090E0BE
:1015E000089581E0FCCF1F93CF93DF930E94310ACF
:1015F000EC01C11580E5D807F0F5C11580E4D807E6
:1016000008F09CC0C03ED10520F5CD3CD10508F0C6
:1016100082C0C83AD10578F4C53AD10508F073C044
:10162000C130D10519F1209709F1C430D105F0F48A
:10163000D0E0C0E01BC0C33CD105D0F7C85AD0E011
:10164000CC0FDD1FC759DE4F0990D881C02DD4645F
:101650000DC0C11580E2D80708F0D1C0C11581E0E6
:10166000D80708F05AC0C83ED10510F7CE01DF9167
:10167000CF911F910895C03682E5D80718F5C03480
:1016800082E5D80708F06BC0C03282E5D80708F0C1
:101690005FC0C11582E5D80708F497C02C2F2695A6
:1016A000269580E2289F900111248C2F8370C1E041
:1016B000D0E002C0CC0FDD1F8A95E2F7C22BD32BFE
:1016C000DD68D4CFC03A82E5D80760F4C03882E53F
:1016D000D80708F459C0CF71D0E0DC2FCC27C46FF5
:1016E000D06AC4CFC03C82E5D80708F462C0C03ECF
:1016F00082E5D80708F09CCFDC2FCC27CC27DF7100
:10170000C06FD06AB3CFC55AD0E0CA59DE4FC88186
:10171000D0E0D064ABCFD065A9CF8D2F0E94E20975
:10172000182FCE0199270E94310AC12FD0E0DC2F5B
:10173000CC27CC27DF71C82BD92B98CFCE01992786
:101740000E94310ACC27DF70C82BD92BD06A8ECFEC
:10175000CF71D0E0DC2FCC27C16FD06A87CF2C2F80
:1017600026952695277080E2289F900111248C2FC2
:101770008370C1E0D0E002C0CC0FDD1F8A95E2F794
:10178000C22BD32BDC6872CF2C2F26952695277081
:1017900080E2289F900111248C2F8370C1E0D0E05B
:1017A00002C0CC0FDD1F8A95E2F7C22BD32BDA687B
:1017B0005DCF8C2F8F710E94E209C82FD0E0DC2F03
:1017C000CC27CC27DF71D06251CF8C2F8F710E9434
:1017D000E20955E0D695C7955A95E1F7CF70D0E06C
:1017E000DC2FCC27282F30E084FF05C044E0220FF7
:1017F000331F4A95E1F7C22BD32BD06937CF8D2FFA
:101800008F710E94E209182FCE0199270E94310A98
:10181000C12FD0E0DC2FCC27CC27DF71C82BD92BF0
:10182000D2CF809590913002982390933002089502
:101830008091A50390916C03981301C008958F5F68
:101840008770FACFB0E0A0E0E8E2FCE00C948B28CF
:101850007C010091890210918A0280918702909107
:101860008802082B192BCFE0D0E0CC24C394D12CD4
:10187000BC2EC6010C2E02C0880F991F0A94E2F7F5
:1018800080239123892B49F4219790F7B12C8B2D3C
:10189000CDB7DEB7E9E00C94A728B7018C2F0E94E2
:1018A000D30A0E94F30A019779F3F1CFCF93DF9324
:1018B000EC010E94220CBE010E94D30A0E94F30A8E
:1018C000DF91CF9108959A3070F5883060F528E067
:1018D000929FF0011124E80FF11D6E2F677083E0D5
:1018E000F695E7958A95E1F7EE0FFF1FEE0FFF1FC4
:1018F000EA50FE4F50E040E080E0219130E0062EBB
:1019000002C0369527950A94E2F721703327042EFA
:1019100001C0220F0A94EAF7822B4F5F5F4F4430D9
:10192000510559F7089580E008959A3090F5883070
:1019300080F528E0929FF0011124E80FF11D2E2F71
:10194000277041E001C0440F2A95EAF783E0F6953D
:10195000E7958A95E1F7EE0FFF1FEE0FFF1FEA50A4
:10196000FE4F30E020E070E05191DF011197CB0194
:10197000022E02C0969587950A94E2F781708195B0
:101980008527842385278C932F5F3F4F2430310593
:1019900059F7089590938A0280938902089521E06F
:1019A00030E002C0220F331F8A95E2F72095309570
:1019B0008091890290918A02822393230E94CA0C0B
:1019C0000895909125028095892380932502282FE0
:1019D000277069F4891759F090918C0292FF07C023
:1019E0008695869586950E94CF0C109225020895C3
:1019F00021E030E002C0220F331F8A95E2F7809188
:101A0000890290918A02822B932B0E94CA0C08951E
:101A100090938802809387020895FC0124812223F9
:101A2000C1F0808191810E94560C92959F709630F2
:101A300091F058F4925F9F70923058F4803F19F003
:101A400030F4883E30F481E008959A5FF4CF843F0B
:101A5000D1F380E00895883EB0F3813FD1F7F3CF12
:101A6000A6E0B0E0E6E3FDE00C94912849835A83B8
:101A700049815A819923A1F0222391F0CA010E9441
:101A8000220C182F682F89819A810E94950C6981F8
:101A90007A81812F0E94D30A2696E3E00C94AD2828
:101AA000CA010E94630C182FF2CF0F931F93CF939C
:101AB000DF938B01EA0190916203943061F580938A
:101AC000E9008FEF9091E800815095FD06C095EDFB
:101AD0009A95F1F700008111F5CF8091E80085FF1C
:101AE0001AC00E944E03811111C08091E80085FD4B
:101AF00006C08091E8008E778093E800F2CFF8016D
:101B000081918F018093F100219779F78091E8000E
:101B10008E778093E800DF91CF911F910F91089508
:101B200043E050E0BC0182E00E94550D0895CF9340
:101B3000DF93EC0148E050E0BC0181E00E94550DCC
:101B400088E0FE01A8E5B3E001900D928A95E1F7E7
:101B5000DF91CF91089581E08093E00080E280934F
:101B6000D8001092C9008FE19EE40197F1F700C000
:101B7000000087E090EBDC018093A9039093AA0317
:101B8000A093AB03B093AC0388E19CE00FB6F8944C
:101B9000A895809360000FBE90936000FFCF3EB188
:101BA0003F7B2EB120644FB7F8948AE193E0FC01AB
:101BB0005191CF0168E02EB9000000C057FF3EB937
:101BC000550F000000C000C000C03EB900C06A95BB
:101BD00091F7F3E08A349F0751F74FBF8FE594E008
:101BE0000197F1F700C000000895B0E0A0E0EBEF2E
:101BF000FDE00C948A287C015B016A0180917602E9
:101C000001E010E08A3010F40AE010E0C1E0D0E01A
:101C1000B501C701F6010995811104C021960C1781
:101C20001D072CF4CDB7DEB7EAE00C94A628CC9FB4
:101C30009001CD9F300D300D112490E080E045E300
:101C40004A95F1F70000019682179307C1F7E0CF9C
:101C5000682F86E090E00E94EB2908950E944006DC
:101C6000809111030E94280E08958091110380FD38
:101C700013C0816080931103813019F489E080934F
:101C80001103809111030E94280E80911103869503
:101C9000869586950E949F05089586E090E00E94B3
:101CA000C7298093110382FD05C08DE18093110344
:101CB0000E94280E80911103803220F08770886185
:101CC0008093110390911103892F817090FF04C0BC
:101CD000892F8695869586950E949F050895B0E088
:101CE000A0E0E5E7FEE00C948428FC0162804480DB
:101CF00081E08483E6EBF3E07490E5E3F4E0E491C3
:101D0000C0910C03C695C158D0E0CC0FDD1FCD2F7C
:101D1000DD27812C25E0922EAA24AA94B12C5524EB
:101D20005A94E719EE2EF12C80916101881638F053
:101D30000E946106CDB7DEB7E0E10C94A028C82C64
:101D4000D12C82E0861568F09C9CF0019D9CF00DE2
:101D50001124E754FD4F80910A03808380910B0387
:101D6000818341101CC09C9CF0019D9CF00D1124AE
:101D7000E754FD4F1382128220915F012C0D3D2DFF
:101D8000311D9C9CF0019D9CF00D1124E754FD4FEA
:101D90004281618180810E9492078394C5CF9C9C7F
:101DA00080019D9C100D112407541D4FF801838163
:101DB0008823F1F081508383859DC00111246481C3
:101DC00070E00E94D528FB01FF27EA54FC4F849164
:101DD000E82FE719E59DC0011124B7010E94D5281D
:101DE00080910C03689FB0011124F8017283C4CF65
:101DF0000E949429B5010E94E9288C179D070CF0D8
:101E0000BBCFF2E0F61598F40E949429B5010E9428
:101E1000E928F80180830E94942920910B032695DC
:101E2000622F70E00E94E928280FF80121839C9C12
:101E3000F0019D9CF00D1124E754FD4F128280911A
:101E40000C03893C58F088EC9C9CF0019D9CF00DA3
:101E50001124E754FD4F848383838ECF8431A0F710
:101E600084E1F2CF609109036695669570E04BE0DE
:101E700050E08FE491E00E94A429892B19F481E0BD
:101E80008093B5020E94D7099093AF028093AE026F
:101E90008091B60284608093B6020895B0E0A0E01D
:101EA000E4E5FFE00C94882849015A016B017C01AC
:101EB0000E94C5068401A4016A2D7B2D88E090E074
:101EC0000E94FD2994014A2D5B2DB601C70100E255
:101ED0000E942D29622F83E290E00E94EB29CDB76A
:101EE000DEB7ECE00C94A428B0E0A0E0EAE7FFE065
:101EF0000C948D28D82F062F142FE22E90910903D1
:101F000090FF3FC020910A03281308C080910B0363
:101F1000861304C080910C03841729F08091B602C7
:101F200082608093B602E92FE695E695AE2FB0E089
:101F3000A254BE4F8C918093B4029C7F943031F5B3
:101F40006D2F702F812F0E94D406962F672F482F58
:101F5000892F0E948106D0930A0300930B031093EC
:101F60000C03EE2071F02091090360910D03709134
:101F70000E033D2FA80180910F03909110030E9442
:101F80004E0FCDB7DEB7E7E00C94A928823019F4E4
:101F900010910C03E0CF863061F1893051F1893125
:101FA000D1F6E9518E2F8170D82EE695F0E0EF55ED
:101FB000FC4FC491F12C60916101F61618F00E945B
:101FC0006106C9CFFC9EC001112470E00E94D52893
:101FD0008D2FD1100CC0860F20915F012F0D33275C
:101FE000331F412F602F0E949207F394E4CF861B8A
:101FF000F3CFD22FB0CFE9E0F3E0438121E1421BE0
:1020000008F440E021E0628181810E94740F08950C
:10201000E9E0F3E0438121E1420F08F44FEF21E0D2
:10202000628181810E94740F0895E9E0F3E062818A
:1020300021E1621B08F460E021E0438181810E947C
:10204000740F0895E9E0F3E0628121E1620F08F482
:102050006FEF21E0438181810E94740F0895E9E0D0
:10206000F3E0818121E04381628188500E94740FF6
:102070000895E9E0F3E0818121E043816281885F96
:102080000E94740F089580910D03882319F08150E8
:1020900080930D032091090330910A0340910B03B3
:1020A00050910C0360910D0370910E0380910F030A
:1020B000909110030E944E0F089580910D0383307C
:1020C00018F48F5F80930D032091090330910A0368
:1020D00040910B0350910C0360910D0370910E031E
:1020E00080910F03909110030E944E0F08959091DC
:1020F000090390FF3AC09370811138C094609093A7
:1021000009038091B60281608093B602662391F044
:102110002091090330910A0340910B0350910C0365
:1021200060910D0370910E0380910F039091100345
:102130000E944E0F609109036695669570E04BE032
:1021400050E08FE491E00E94A429892BB9F00E940D
:102150005A0681E08093B10220E040910C03609127
:102160000B0380910A030E94740F08958B3210F0C4
:10217000986AC5CF880F880F982BC1CF0E94320F65
:10218000E8CF8091090386958695815009F48AE20B
:1021900061E00E94771008958091090386958695E5
:1021A0008F5F8B3208F081E061E00E947710089524
:1021B00090918C0292FB222720F9281779F080FB5E
:1021C00092F990938C0260918B0270918C0284E062
:1021D00090E00E94092A82E00E94E10C0895A4E0A8
:1021E000B0E0E5EFF0E10C94912840916A02509143
:1021F0006B0260916C0270916D022FB7F894809120
:10220000530390915403A0915503B09156032FBFEF
:10221000841B950BA60BB70B11E084369105A10525
:10222000B10570F10E94BD096E5F7F4F8F4F9F4FC8
:1022300069837A838B839C8380912D0190912E01F9
:10224000855B9D4F40912C0150E04530510510F0C9
:1022500044E050E0BE016F5F7F4F0E94BE2985E0E1
:1022600090E00E940C28182F882351F00E949B04B4
:1022700060936A0270936B0280936C0290936D027C
:10228000812F2496E3E00C94AD284F925F926F92D9
:102290007F928F929F92AF92BF92EF92FF920F9395
:1022A0001F93CF93DF937B01FB01408051806280BD
:1022B00073809FB7F8948090530390905403A0903C
:1022C0005503B09056039FBF84189508A608B70819
:1022D000F4E68F169104A104B10418F4C1E044237C
:1022E00029F1C82F880FDD0BFE0183E0EE0FFF1FE1
:1022F0008A95E1F7EC5FFE4F81819281855B9D4F6E
:10230000408150E00417150708F4A801B9010E94A4
:10231000BE29CE010E940C28C82F882339F00E94C4
:102320009B04F70160837183828393838C2FDF91F9
:10233000CF911F910F91FF90EF90BF90AF909F9022
:102340008F907F906F905F904F900895ABE0B0E0DA
:10235000ECEAF1E10C94902888E0E9E0F3E0DE019A
:10236000119601900D928A95E1F78091B4029091B7
:10237000B502A091B60289879A87AB8741E08B8529
:10238000811101C040E00BE010E09E012F5F3F4F44
:1023900062E772E087E00E94451181111092B60257
:1023A0002B96E4E00C94AC28A1E0B0E0EAEDF1E17A
:1023B0000C9490288091110380FF18C08695869513
:1023C0008695898341E090915E02981301C040E0B8
:1023D00001E010E09E012F5F3F4F6EE672E086E065
:1023E0000E9445112196E4E00C94AC2880E0E9CFEE
:1023F0004F925F927F928F929F92AF92BF92CF92B5
:10240000DF92EF92FF920F931F93CF93DF930F9280
:10241000CDB7DEB7C62E4A015901482E880F5508A0
:10242000C2010E940C28782E882309F480C0C201C2
:1024300033E0880F991F3A95E1F7FC01EC5FFE4FFE
:10244000438150E04115510511F041E050E08C5FAF
:102450009E4FFC0164817581655B7D4FCE010196C5
:102460000E94BE29F40140815181628173812FB79E
:10247000F8948091530390915403A0915503B09127
:1024800056032FBF841B950BA60BB70B8436910503
:10249000A105B10540F4B701C8010E943705998133
:1024A000891709F444C00C2C000CDD08C6010E94F9
:1024B0000C28782E811113C0712C872D0F90DF917D
:1024C000CF911F910F91FF90EF90DF90CF90BF9031
:1024D000AF909F908F907F905F904F900895C6012E
:1024E00023E0880F991F2A95E1F7FC01EC5FFE4F6E
:1024F000438150E0E416F50608F4A7018C5F9E4F77
:10250000FC0164817581655B7D4FC5010E94BE2918
:10251000B701C8010E94370599818913CDCF0E9468
:102520009B04F4016083718382839383C6CFA701E8
:10253000B801C5010E94BE29C0CFA8E0B0E0E3EA1F
:10254000F2E10C948E2888E0E82EF12C02E512E0EE
:102550009E012F5F3F4F47E452E063E082E00E941C
:10256000F811082F882389F1909151028091460239
:10257000981759F110E090915502809154028917F3
:10258000F1F0E92FF0E0E15BFD4F878187FB6627E3
:1025900060F99F5F937090935502909153029F5FF3
:1025A000909353028F770E947A05182F8111E3CF01
:1025B00084E090E00E940C28012F082302C0111132
:1025C000F7CF8091510280934602802F2896E6E053
:1025D0000C94AA28A5E0B0E0E0EFF2E10C948C287E
:1025E0006B0185E0E82EF12C0CE412E09E012F5FD8
:1025F0003F4F42E452E061E080E00E94F8118823FE
:1026000049F095E0FE013196ADE3B2E001900D9204
:102610009A95E1F795E0EDE3F2E0D60101900D9295
:102620009A95E1F72596E8E00C94A828A5E1B0E09A
:10263000ECE1F3E10C9487288E01045F1F4F8AE0E0
:10264000F80111928A95E9F781EAC82E81E0D82E27
:10265000F12CE12CAA24A394B12C2EEA822E21E0A5
:10266000922EF60181916F018F3F09F442C0F894D8
:10267000E82FE295EF70F0E021A18F70A50102C074
:10268000440F551F8A95E2F7CA01922F982B91A308
:1026900092A18095892382A3789400C0E6EAF1E0B4
:1026A000712C31E021912F3F09F4A5C0A22FA295F2
:1026B000AF70B0E090968C9190E02F7002C095952D
:1026C00087952A95E2F780FD96C0832F782A330FED
:1026D0008E169F0639F7F601319780818F3F11F0F2
:1026E0000E94A60950EA5A95F1F7F801EE0DFF1D78
:1026F00070828FEFE81AF80A95E0E916F10409F004
:10270000B0CF4AE050E0B8018BE792E00E94B129D7
:10271000009741F02AE0F801ABE7B2E001900D929A
:102720002A95E1F70091860210E002571D4F892B90
:1027300009F463C081E0809335020E94A70490935E
:10274000340280933302D12CC0904A03FE013196AB
:102750007F0185E0CC2009F4A6C011928A95E9F7A3
:10276000809176028A3008F06CC04AEE52E1B701DF
:10277000C8010E94F50D882309F484C04DE952E197
:10278000B701C8010E94F50D882309F47BC04FEE04
:1027900050E1B701C8010E94F50D882309F472C009
:1027A00044ED51E1B701C8010E94F50D882309F4F9
:1027B00069C046EA51E1B701C8010E94F50D8823BE
:1027C00009F460C0109276028091850290E045E0A5
:1027D00050E0B70182579D4F0E94B12921E020931C
:1027E0003C02892B09F042C0C12C8C2D8D296596A5
:1027F000EDE00C94A32880E069CFD0903502DD2075
:1028000009F4A1CF80913302909134020E948C048C
:10281000059708F498CF45E050E06BE772E0C801F7
:102820000E94B129892B59F085E0EBE7F2E0D8014D
:1028300001900D928A95E1F71092350285CFD12C47
:10284000FBCF80913602909137020E948C04843F26
:10285000914008F08ACF80913C02882329F285E0DC
:10286000F70111928A95E9F710923C02A091850236
:10287000B0E0A257BD4F85E0F70101900D928A9517
:10288000E1F7B3CF809176028F3F31F08F5F809375
:1028900076028A3008F498CF0E94A70490933702FA
:1028A00080933602D8CFF801ACE4B2E001900D92EB
:1028B0008A95E1F765E070E08CE492E00E943705CC
:1028C00080934B0288E0E2E1F3E0A2E5B2E0019000
:1028D0000D928A95E1F768E070E082E592E00E944F
:1028E00037058093510280905A0290905B02A0902D
:1028F0005C02B0905D028091380290913902A09103
:102900003A02B0913B0288169906AA06BB06B1F0BE
:102910008092380290923902A0923A02B0923B0221
:102920000E949B04861A970AA80AB90A8092770225
:1029300090927802A0927902B0927A0280915E021F
:102940000E9440068BE0EFE5F2E0D70101900D9286
:102950008A95E1F72981822F86958695FA80EB800A
:10296000BC800A851B8510926902112309F43DCFB2
:1029700010FF0AC09091090320FF1AC09160909344
:10298000090360E00E94771011FF06C020E04B2D84
:102990006E2D8F2D0E94740F12FF04C00023A9F02A
:1029A0000E94320F13FF21CF81E08093B1021DCF2F
:1029B0009E7F909309030E945A068091B60281601F
:1029C0008093B6020E946106DFCF0E945A06EACFCA
:1029D0002091300280912702282B809126028823A3
:1029E00081F0282B30E08EEE91E0FC014191CF0187
:1029F00041113F5FF1E0843F9F07B9F73111109219
:102A000026022093EC0148E050E068E272E08CEE90
:102A100091E00E94B129892BA9F088E0ECEEF1E069
:102A2000A8E2B2E001900D928A95E1F7E0914E03A1
:102A3000F0914F03309731F00280F381E02D8CEE5E
:102A400091E00995089510923002EEEEF1E086E0F3
:102A5000DF011D928A95E9F790E080E00E94010570
:102A600090E080E00E94DC04109227020E94E814AB
:102A70000895AAE2B0E0EFE3F5E10C94912884E632
:102A800093E02091F100FC012193CF01F3E08C361B
:102A90009F07B9F780916503833009F470C0B8F4DB
:102AA000813009F447C0823009F4B5C08091E80054
:102AB00083FF89C280916403909165039A3008F086
:102AC00082C2E92FF0E0EC57F54D0C94FD288A30D6
:102AD00009F490C08B3009F46FC0893039F78091C8
:102AE0006403813219F7809168039091690302971A
:102AF000E8F68091E800877F8093E8008091E80005
:102B000082FF38C09091F3008091F200029731F477
:102B10008091F100813011F0863021F48091F10034
:102B2000809363018091E8008B778093E8000E9496
:102B30007F03BCCF80916403813A09F0B7CF8091C5
:102B4000E800877F8093E800809168039091690393
:102B5000892B61F468E088E593E070E00E942B0423
:102B60008091E8008B778093E800A0CF60E090E050
:102B700080E0F3CF809162038111C0CF97CF809125
:102B80006403813A09F092CF8091680390916903C0
:102B9000892B09F08BCF8091E800877F8093E80034
:102BA0008091E80080FFFCCF809164018093F10068
:102BB0008091E8008E77B9CF80916403813209F06B
:102BC00075CF8091680390916903892B09F06ECFCE
:102BD0008091E800877F8093E8000E947F0381E076
:102BE00090916603911101C080E0809364010E947E
:102BF00023155CCF80916403813209F057CF809117
:102C0000E800877F8093E8000E947F03809167033C
:102C1000809362014BCF80916403813A09F046CFE3
:102C20008091E800877F8093E8008091E80080FF32
:102C3000FCCF80916201BACF803899F0823809F0D8
:102C4000C2C1809168038F70873008F0BCC1809347
:102C5000E9008091EB0085FB882780F91092E9005C
:102C600006C0809160039091610391118260909100
:102C7000E800977F9093E8008093F1001092F100B4
:102C80008091E8008E779BC1882309F489C1823046
:102C900009F099C18091660381118CC1809168030C
:102CA0008F702FEF280F263008F08DC18093E90038
:102CB0002091EB0020FF7EC1933031F48091EB0036
:102CC00080628093EB0076C19091EB0090619093CD
:102CD000EB0021E030E001C0220F8A95EAF7209353
:102CE000EA001092EA008091EB008860EACF81113F
:102CF0006AC1109166031F778091E3008078812B71
:102D00008093E3008091E800877F8093E8000E9431
:102D10007F038091E80080FFFCCF8091E300806812
:102D20008093E30082E0111183E0809362034BC142
:102D30008058823008F047C1809166039091670304
:102D40008C3D23E09207A1F583E08A838AE28983A0
:102D50004FB7F894DE01139620E03EE051E2E32FF6
:102D6000F0E050935700E49120FF03C0E295EF702C
:102D70003F5FEF708E2F90E0EA30C0F0C7968D93E2
:102D80009D932F5F243159F74FBF8091E800877FD3
:102D90008093E8006AE270E0CE0101960E942B0465
:102DA0008091E8008B778093E8000DC1C096E7CF53
:102DB0004091680350916903292F3327233031054F
:102DC00009F444C078F52130310509F46FC08BE374
:102DD00090E0ECE2F5E02230310509F0F4C02091FA
:102DE000E800277F2093E80020916A0330916B036D
:102DF0008217930708F49C0140E02115310509F082
:102E000064C0411162C08091E80082FDC9CF809109
:102E10006203882329F2853019F28091E80083FF4C
:102E2000F2CFBECF21323105A9F12232310509F0AE
:102E3000CAC04115510509F443C04130510509F09C
:102E4000C2C082E390E0E6EBF4E0C9CF992781307D
:102E50009105C1F0009759F0029709F0B4C0E9E775
:102E6000F5E0E4918E2F90E0E9E7F5E007C0E7EAAE
:102E7000F5E0E4918E2F90E0E7EAF5E0009709F4A1
:102E8000A2C0ADCFE7E9F5E0E4918E2F90E0E7E94D
:102E9000F5E0F4CF4115510571F04130510509F0CD
:102EA00092C089E090E0E7E5F5E099CF82E190E01B
:102EB000E7E6F5E094CF89E090E0EEE3F5E08FCF30
:102EC00084E490E0E8EEF4E08ACF80916203882306
:102ED00009F466CF853009F463CF8091E80083FD63
:102EE0005FCF8091E80082FD8ECF8091E80080FF67
:102EF00084CF9091F3008091F2002115310519F0F3
:102F00008830910550F041E0089709F040E0809149
:102F1000E8008E778093E80070CF44914093F100F1
:102F20003196215031090196E8CF803809F04BC025
:102F30008091E800877F8093E8008091630380930D
:102F4000F1009ECE81113FC0109166031230D8F57A
:102F50008091E800877F8093E800109363030E94CC
:102F60007F03112311F084E005C08091E30087FD09
:102F7000FACF81E08093620342E061EC81E00E943D
:102F80009E0342E261EC82E00E949E038091620314
:102F9000843021F081E08093650115C082E0FBCF91
:102FA00080916603813079F481E0933009F080E00C
:102FB000809361031092E9008091E800877F8093FD
:102FC000E8000E947F038091E80083FF0AC080919F
:102FD000E800877F8093E8008091EB008062809317
:102FE000EB00AA96E3E00C94AD280E9423152FEF86
:102FF00084E39CE0215080409040E1F700C0000055
:1030000088E19CE00FB6F894A895809360000FBE0D
:1030100090936000FFCF882321F00E94110C0E9442
:10302000E8140895882339F090913002982B9093FA
:1030300030020E94E8140895882309F44DC08238B4
:1030400079F40E94260581FF47C089E30E94C304EA
:103050000E94E81489E30E94B6040E94E8140895CF
:10306000833859F40E94260580FF36C083E50E940C
:10307000C3040E94E81483E5EECF843859F40E941B
:10308000260582FF29C087E40E94C3040E94E81439
:1030900087E4E1CF9CEF980F913AE8F290E2980F25
:1030A000983050F4877091E001C0990F8A95EAF743
:1030B000892F0E94110CD1CF9BE5980F933028F4F3
:1030C00090E080E00E9401050895885A8B3120F439
:1030D00090E080E00E94DC040895CF93C82F8823FD
:1030E000C9F08238C9F40E94260581FD13C089E326
:1030F0000E94C3040E94E8142FEF87EE93E0215052
:1031000080409040E1F700C0000089E30E94B604CF
:103110000E94E814CF9108958338A1F40E942605F7
:1031200080FDF8CF83E50E94C3040E94E8142FEFCE
:1031300081EE94E0215080409040E1F700C0000013
:1031400083E5E4CF8438A1F40E94260582FDE2CF16
:1031500087E40E94C3040E94E8142FEF81EE94E0FC
:10316000215080409040E1F700C0000087E4CECFBE
:103170008CEF8C0F813A70F4EEEEF1E084EF91E089
:103180002191C21799F18E179F07D1F78C2F0E94BA
:10319000C304BECF80E28C0F883068F4C77021E092
:1031A00030E001C0220FCA95EAF780913002822BED
:1031B00080933002ADCFEBE5EC0FE33040F4F0E06C
:1031C000EA59FE4F808190E00E940105A3CFC85AC2
:1031D000CB3108F09FCFEC2FF0E0EE0FFF1FE75947
:1031E000FE4F808191810E94DC0494CF8C2F0E943D
:1031F000B6040E94E814CACF1F93CF93DF93182F11
:10320000EB010E946D18209739F4812F0E941C1841
:10321000DF91CF911F9108958FE99FE00197F1F71A
:1032200000C000002197EFCF0F931F93CF93DF9340
:10323000C62FD42F022FFC0185818823A9F060932B
:10324000A8030E94A7049093A7038093A603C770C6
:1032500081E001C0880FCA95EAF70E941218DF9139
:10326000CF911F910F9108958091A803681334C0E6
:103270008091A6039091A7030E948C04883C91053D
:1032800058F510E21D0FCD17B9F080E28C0F883091
:1032900040F4C77081E001C0880FCA95EAF70E9428
:1032A0000B18183048F481E09D2F977001C0880FEB
:1032B0009A95EAF70E94121870E060E0802F0E9451
:1032C000FC18183060F6D77081E001C0880FDA95DD
:1032D000EAF70E940B18C3CFC77081E001C0880FC6
:1032E000CA95EAF7F6CFB0E0A0E0E9E7F9E10C947F
:1032F0008A288C01FC018481882309F459C021E0CB
:10330000408151816281738195810E94300DEC0171
:10331000F8019581992309F4C4C4C230F8E7DF07A6
:1033200009F47DC0A0F4C11538E7D30779F1C130A5
:1033300088E7D80709F441C0FE01E851FC47E730AF
:10334000F10508F09BC0E257F54D0C94FD28C43000
:10335000E8E7DE0709F44FC090F1C53028E7D2074F
:1033600059F790911103892F8695869586958F5FE1
:103370008F719770843008F060C0880F880F880FB5
:10338000892B809311038091110321C083E00E9457
:103390002E0E80912502877059F0F80185818823CF
:1033A00039F080918C0282FF03C082E00E94E10C20
:1033B000CDB7DEB7EAE00C94A62880E0E8CF809194
:1033C0001103982F987F79F0885080931103887F9C
:1033D00091E009F490E08091110390FB80F98093D3
:1033E00011030E94280E809111038695869586957B
:1033F0000E949F05CECF80911103982F96959695A8
:103400009695933040F49F5F990F990F990F8770AD
:10341000892B80931103809111038160E0CF80910B
:10342000110380FF07C08E7F809311030E94280E36
:1034300080E0DECF0E94350EACCF90931103A3CF76
:1034400026E241EE61EEC8010E941419A2CF27E2E4
:1034500045EE65EEF8CF26E241EE60EEF4CF27E2CE
:1034600045EE64EEF0CF26E241EE62EEECCF27E2CD
:1034700045EE66EEE8CF28E241E0EBCF1092A803DC
:103480009E0130572332310508F0EBC384E090E011
:103490000E94D52990938C0280938B02FE01E1500B
:1034A000F047E232F10520F4EB56F54D0C94FD287F
:1034B00080918B02816080938B0295C080918C02F9
:1034C000886080938C028FC080918B028260F3CFE2
:1034D00080918B028460EFCF80918B028860EBCF6C
:1034E00080918C028160EDCF80918C028260E9CF67
:1034F00080918B028061DFCF80918B028062DBCF75
:1035000080918B028064D7CF0E94231580918B021B
:103510008068D1CF80918B028C60CDCF80918C025E
:103520008360CFCF80918B028E7FC5CF80918C023C
:10353000877FC7CF80918B028D7FBDCF80918B021B
:103540008B7FB9CF80918B02877FB5CF80918C0222
:103550008E7FB7CF80918C028D7FB3CF80918B020D
:103560008F7EA9CF80918B028F7DA5CF80918B021A
:103570008F7BA1CF0E94231580918B028F779BCFE9
:1035800080918B02837F97CF80918C028C7F99CF23
:1035900080918B0282FB992790F921E0922790FB82
:1035A00082F990FB83F987CF80918C02982F9095B8
:1035B00091708E7F892B90FB81F983CF90918B0244
:1035C000892F8F7B96FF806476CF0E942315909180
:1035D0008B02892F97FB87F980586DCF61E08EE0D1
:1035E00090E00E94EB2960918B0270918C0284E044
:1035F00090E00E94092A0E942315CBCE60E0EFCF15
:1036000090918B02892F8F7E94FF806154CF90918F
:103610008B02892F8E7F90FF81604DCF90918C021D
:10362000892F877F93FF88604CCF85E329C385E38B
:1036300049C38091090380FF1EC0282F2E7F20934D
:10364000090330910A0340910B0350910C036091E0
:103650000D0370910E0380910F03909110030E944F
:103660004E0F0E945A068091B60281608093B60286
:103670000E9461068ECE81608093090361E0869589
:1036800086950E94771085CE882329F00E94C1106C
:1036900080CE8823D9F30E94CC107BCE882329F0DA
:1036A0000E942F1076CE8823D9F30E94391071CE54
:1036B000882329F00E9415106CCE8823D9F30E942C
:1036C000221067CE882329F00E94FB0F62CE882348
:1036D000D9F30E9408105DCE882329F00E94431080
:1036E00058CE8823D9F30E945D1053CE9E01205EF0
:1036F000324520323105A8F4911115C0CF7181E017
:1037000090E0FC0102C0EE0FFF1FCA95E2F7EF0147
:103710006E2F83E090E00E94EB29CE010E94080DFD
:1037200038CE992381F0C330FCE7DF0709F478C075
:1037300008F05BC0C1153CE7D30709F464C0C13091
:10374000DC4709F473C0F8018581C081D1818823E9
:1037500009F47AC0CE010E94220CF82E682FCE0107
:103760000E94950CBE018F2D0E94D30A0E94F30A7D
:10377000D82FC92FA82EF801C580B680B2943FE09B
:10378000B32280912502877009F1EC2CCC20F9F04E
:10379000892F807F803469F080E28D0F8830B0F00F
:1037A000892F807E803229F4F1E0FD1778F4BB2068
:1037B00069F080918C0282FF09C082E00E94E10CD6
:1037C000809125028770EE24E3948111E12CDC2E98
:1037D000D2942FE0D2222BE02D1508F49AC0ED2DC3
:1037E000F0E0E954F54D0C94FD28CB359CE7D90762
:1037F00049F1CC35ECE7DE07D9F0CA35DC4709F0F2
:10380000A2CF81E01CC00E9423152FEF34E38CE08F
:10381000215030408040E1F700C000000E94AB0D15
:103820006FEF7FEF90E080E00E94092A0E94F51779
:1038300080918C0282FB882780F991E089270E9481
:10384000D81081CF80E0FBCFCE010E94630CF82E10
:1038500089CF3C2F3F70F32EC07F19F0F29490EF88
:10386000F922CC20B9F0FF2069F080E28D0F88307A
:1038700010F0A11009C080913002F82AF0923002B5
:103880000E94E8148D2F43C080912702F82AF092FD
:103890002702F6CF8D2F0E941C18FF20D1F1D05E99
:1038A000D83010F0A11004C08F2D0E94110C06C05A
:1038B000F09480912702F822F09227020E94E814E7
:1038C00028C08C2F8F70F82EC07FC03219F0F29470
:1038D00080EFF822AA2059F091E0A91609F478C0E7
:1038E000CC2009F484C0BB2009F446C0CBCF809122
:1038F0008C0282FD3DC0CC20A9F1FF2039F08091DF
:103900003002F82AF09230020E94E81480E00E940F
:103910006D18ED2DE850FF0B349710F40E9426052A
:10392000EE20A9F08091250280FD11C0F8011582DA
:103930008695869586950E94F80CC8010E94731999
:10394000809125028695869586950E94CF0C20E071
:10395000F8014081518162817381848195810E9447
:10396000300D26CD80E00E941C18FF2091F29CCFE4
:10397000CC20A1F0B11004C08F2D0E941218C9CF25
:10398000E1E0BE12C6CF809126029F2D9823F91642
:1039900009F4BFCFF82AF0922602BBCFB110B9CFFD
:1039A0008F2D0E940B18909126028F2D892329F0CC
:1039B0008F2D80958923809326028091F5019F2D7C
:1039C000982309F4A6CFF094F822F092F501A1CF44
:1039D000CC2029F0F5E0FB1508F49BCFCDCF24E0F7
:1039E0002B1508F496CF8F2D0E940B1892CFBB2079
:1039F000D1F339E3A31209C08FEF97EEE3E08150D2
:103A00009040E040E1F700C000008D2F0E941C189C
:103A100080CF8C2F86958695837069F0813009F070
:103A200078CF8D2F9C2F9370C11002C080E090E062
:103A30000E94DC046ECF8D2F9C2F9370C11002C0AA
:103A400080E090E00E94010564CF8C2F837009F024
:103A50003FC0C1105ECF4D2F429546954770440F31
:103A6000440F2D2F2F7030E0042E02C0220F331F81
:103A70000A94E2F790E080E0D4FF09C08FE090E084
:103A800002C0880F991F4A95E2F780959095C695D8
:103A9000C695C370C23099F078F440918702509176
:103AA0008802C13039F0822B932B842395230E9406
:103AB000080D2FCF242B352B822B932BF8CF822B65
:103AC000932B209187023091880282279327EFCF92
:103AD0008695CC2011F08C2F8170882309F419CFA2
:103AE0004D2F429546954770440F440F2D2F2F7050
:103AF00030E0042E02C0220F331F0A94E2F790E058
:103B000080E0D4FF09C08FE090E002C0880F991FC9
:103B10004A95E2F780959095C695C695C370C230D8
:103B200099F078F44091890250918A02C13039F0BD
:103B3000822B932B842395230E94CA0CEACE242B3C
:103B4000352B822B932BF8CF822B932B209189023C
:103B500030918A0282279327EFCFCF70CC2029F0B3
:103B60008C2F0E94F80C8D2F08CF8D2F0E940B18E0
:103B70008C2F0E94CF0CCDCE8D2FF2EFAF1699F186
:103B8000FA1570F020EFA216D1F031EFA31691F0E4
:103B9000CC2009F456C0B11075CE8C2F8F7127C080
:103BA00093EFA91639F1E4EFAE12F2CF90918C02A7
:103BB00092FD2EC08C2F8F71CC20D9F218C0CC2052
:103BC00069F0F4E0FB1508F4A4CECF7181E090E039
:103BD00002C0880F991FCA95E2F7B8CF25E02B15D0
:103BE00008F497CEF2CF8C2F8F71C110C2CF0E94F4
:103BF000F80C8FCE90E080E0CC2009F49DCFCF71FF
:103C000081E090E002C0880F991FCA95E2F794CF37
:103C1000CC2061F08C2F8F7192FFE9CF98E0899FC3
:103C200090011124236020932502E1CF81E00E94BE
:103C3000E10CE1E0EB1508F06CCE82E00E94E10CB3
:103C400068CEBB2059F0893309F0DFCEFFEF27EEB5
:103C500033E0F15020403040E1F7D5CE8C2F8F710A
:103C600088CF80913002C631FCE7DF0771F48A7A91
:103C700091E009F490E09093F4018111D6CC89E2AF
:103C80000E94C3040E94E81484CB8272FE01E052B9
:103C9000F847EB30F10508F029CDED53F54D0C94C4
:103CA000FD28FE01E851FC47E730F10508F44BCB55
:103CB000C6312CE7D20709F019CD8091F4018111AA
:103CC000B6CC89E20E94B604DDCFCF93DF9380911A
:103CD0002402807F09F04DC080912302882309F4DB
:103CE00048C0E091A50350916C03C0911F02D09190
:103CF0001E02609120027091210247E05E17C9F117
:103D00008E2F90E0E49FF0011124E359FC4F2481B1
:103D1000222391F1489FF001499FF00D1124DF010A
:103D2000A359BC4F11962C9111972C1325C02C919F
:103D30002D1322C015962C91159721111DC0129696
:103D40002D913C91261B370B283C3105A8F480911E
:103D500024028F70806180932402ED58FC4F808193
:103D60008F70806180838EE192E00E9473190E94BF
:103D7000180CDF91CF910895FC013196E770BECF0A
:103D8000A4E1B0E0E6ECFEE10C9488288C0186E02A
:103D9000F801DE011F9601900D928A95E1F7F80176
:103DA0008481E5809EE1A92E92E0B92E90912202B5
:103DB000911128C0882319F1EE20F1F0C8010E946A
:103DC0000D0DF82E8823C1F087E0F801D501019090
:103DD0000D928A95E1F780912202813031F4809131
:103DE0001E0290911F020E94560C0E94651E8F2D8C
:103DF0006496ECE00C94A428C8010E947319FF2477
:103E0000F394F5CFD080C18082809380F09023021C
:103E10002091200230912102A401421B530BFF206C
:103E200009F4D9C0483C510508F092C08823F9F242
:103E300090911F0280912402282F207F09F056C004
:103E4000C91214C090911E02D91210C0E11048C0CE
:103E50008F708061809324028EE192E00E9473193A
:103E600080912402F8018683F12CC1CFE11038C083
:103E70006C2D8D2D0E9410036C2D8D2D0E94100332
:103E8000E82E8111F1CFDF86C88A8F8598890E943C
:103E9000560C292F22952F70243058F49F70223011
:103EA00088F0992399F0F8019681907F79F4FE2C9F
:103EB0009ECF2A5F2F70223068F0C8010E947319CC
:103EC000EF2CF5CF992311F0882389F3805E883099
:103ED00070F3F3CF803F58F3815F833070F7E7CF03
:103EE00080912402816080932402BECFC91207C052
:103EF00090911E02D91203C0EE2009F48DC0C801B2
:103F00000E940D0D882309F477CFEE2009F474CFB9
:103F100080912402803288F020911E0230911F028D
:103F2000398728879B868A86909122029C871D86E6
:103F30008E87CE0108960E94731987E0F801AEE1E2
:103F4000B2E001900D928A95E1F70E94651E57CF6D
:103F500090912402292F207F51F48EE192E00E945B
:103F6000731987E0F50111928A95E9F77DCF8823CF
:103F700009F43DCF80911F028C1110C080911E0268
:103F8000D8120CC0E1100AC09683C8010E947319B0
:103F900087E0F50111928A95E9F729CFC8010E94BF
:103FA0000D0D882309F428CFEE2009F425CF809148
:103FB0002402803210F220911E0230911F023A83B7
:103FC00029839C828B82909122029D831E828F8303
:103FD000CE010196B0CF483C5105D0F6882309F4B4
:103FE0000ECFFE2CEE2009F407CF80911F028C111A
:103FF00020C080911E02D8121CC08091240280FD36
:104000000FC0982F907F61F08683903F31F0982FFA
:10401000907F905F8F70892B8683C8010E947319EF
:1040200087E0F801AEE1B2E001900D928A95E1F7E8
:10403000DECEC8010E940D0D81117FCF8091240238
:10404000816080932402C8010E947319D0CEABE135
:10405000B0E0EDE2F0E20C9490284E8B5F8B688F1D
:10406000798F8A8F9B8F192F9111109227021D8AA9
:1040700086E0FE017696DE011F9601900D928A95EC
:10408000E1F70A8D002341F021E04F8558896989C5
:104090007A89C8010E94300D0B8B1C8B87E0FE01D2
:1040A0003F96DE01189601900D928A95E1F7CE01B8
:1040B00008960E94C01E81112AC087E0FE01389632
:1040C000DE01119601900D928A95E1F78C85882387
:1040D000F1F020916C0330E0C901019687709927B7
:1040E0004091A50348171906E9F097E0929FD00187
:1040F000939FB00D1124A359BC4FFE01319601903E
:104100000D929A95E1F780936C030E94180C17E0CA
:104110008091A50390916C03891312C06B96E4E023
:104120000C94AC280E94231510926C031092A503E6
:1041300087E0EEE1F2E0DF011D928A95E9F7E7CF33
:10414000819FC001112483599C4F0E94C01E882367
:1041500029F38091A50390E00196877099278093B9
:10416000A503D6CFA6E0B0E0E8EBF0E20C949028EF
:104170000E94A7048C018091310290913202801735
:10418000910781F019821A820E94A704682F498141
:104190005A81792F80E090E00E942720109332020C
:1041A000009331022696E4E00C94AC2880E09091D4
:1041B000150320911403291739F1E92FF0E0EA5E85
:1041C000FC4F808187FB222720F98F779F5F9370B8
:1041D00090931503909113039F5F9093130388238B
:1041E00049F0813079F470E060E08EE4211108C07C
:1041F0008BE406C070E060E089EA211101C08AEA20
:104200000E94FC1881E0D3CF08951F920F920FB641
:104210000F9211242F933F934F935F936F937F934C
:104220008F939F93AF93BF93CF93DF93EF93FF93BE
:10423000D091E900DF708091EC00C82FC17080FD43
:10424000C0E81092E9008091F000877F8093F00031
:1042500078940E9439151092E9008091F0008860EE
:104260008093F000CD2BCF70C093E900FF91EF91C8
:10427000DF91CF91BF91AF919F918F917F916F917E
:104280005F914F913F912F910F900FBE0F901F9014
:1042900018951F920F920FB60F9211242F933F93F0
:1042A0004F935F936F937F938F939F93AF93BF933E
:1042B000EF93FF938091E10082FF09C08091E200BB
:1042C00082FF05C08091E1008B7F8093E1008091A7
:1042D000DA0080FF24C08091D80080FF20C0809148
:1042E000DA008E7F8093DA008091D90080FFAAC027
:1042F00080E189BD82E189BD09B400FEFDCF81E086
:104300008093620380915703811109C00E942F039B
:104310000E94D0038091E20084608093E20080914B
:10432000E10080FF1AC08091E20080FF16C08091FA
:10433000E2008E7F8093E2008091E20080618093B2
:10434000E2008091D80080628093D80019BC85E09B
:104350008093620383E0809365018091E10084FF94
:1043600030C08091E20084FF2CC080E189BD82E1F1
:1043700089BD99B5892F817090FFFBCF9091D800AE
:104380009F7D9093D8009091E1009F7E9093E100F3
:104390009091E2009F7E9093E2009091E200916004
:1043A0009093E20090916303992309F451C094E043
:1043B0009093620390916203943009F482E08093B9
:1043C00065018091E10083FF2CC08091E20083FFB2
:1043D00028C08091E100877F8093E10082E0809394
:1043E0006203109263038091E1008E7F8093E1006D
:1043F0008091E2008E7F8093E2008091E2008061F4
:104400008093E20042E060E080E00E949E038091A1
:10441000F00088608093F00081E0809365018093D4
:104420006401FF91EF91BF91AF919F918F917F9127
:104430006F915F914F913F912F910F900FBE0F9011
:104440001F90189519BC109262031092570367CF02
:104450009091E30097FD02C0982FAACF93E0A8CFD8
:1044600078941F921FB61F9211248F939F93AF933E
:10447000BF938091530390915403A0915503B09141
:1044800056030196A11DB11D8093530390935403CD
:10449000A0935503B0935603BF91AF919F918F9115
:1044A0001F901FBE1F9018951F921FB61F921124B8
:1044B0008F939F93AF93BF9380915203811113C049
:1044C0008091530390915403A0915503B0915603EA
:1044D0004196A11DB11D8093530390935403A09363
:1044E0005503B0935603BF91AF919F918F911F9049
:1044F0001FBE1F901895CDB7DEB72A970FB6F89458
:10450000DEBF0FBECDBF85B7806885BF85B7806829
:1045100085BF84B7877F84BF0FB6F894A895809134
:104520006000886180936000109260000FBE80E898
:1045300090E00FB6F89480936100909361000FBEF5
:1045400081E08093650180EA99E09093EB0180938C
:10455000EA010E942F030E94D0038091E200846050
:104560008093E2007894809162038823A1F01091F7
:10457000E9001F709091EC00892F817090FD80E818
:10458000182B1092E9008091E80083FD0E943915F4
:104590001F701093E90082E084BD93E095BD9AEF0F
:1045A00097BD80936E00109277021092780210925D
:1045B000790210927A028091D80080618093D800AD
:1045C0002AE12A95F1F700C08091D900182F1170C7
:1045D00080FD04C00E942F031092620310934A03CF
:1045E00087988F988FE891E00197F1F700C000005D
:1045F0008FB1881F8827881F80934B0380934401C5
:10460000882309F4FEC010925D0188E080935E016A
:1046100080914A0381110E942027E2E1F3E088E0C3
:10462000DF011D928A95E9F78091440191E0892785
:104630008093A802809144019093AB028091440141
:1046400060E080E00E94670561E080E00E9467050D
:10465000EFE8F1E03197F1F700C0000010E0809141
:10466000AB02181708F4D1C0809144018091440135
:1046700095E0811190E09093860285E0891B8093FC
:10468000850201EA11E096EAE92E91E0F92ED801BF
:104690008D918D018F3F11F00E94A609E016F10661
:1046A000B1F706EA11E0F80181918F018F3F11F017
:1046B0000E94A609F1E00E3A1F07A9F78AE0EEE88A
:1046C000F2E0DF01282F1D922A95E9F7EBE7F2E0EF
:1046D000DF011D928A95E9F790E080E00E94D529DC
:1046E000853E9E4F09F466C065EE7EEF90E080E067
:1046F0000E94092A60E082E090E00E94EB2981E0BC
:1047000090E0909388028093870261E083E090E0DC
:104710000E94EB2960E074E184E090E00E94092AA5
:1047200060E086E090E00E94EB2960E087E090E0A6
:104730000E94EB2940E050E0BA0188E090E00E943E
:10474000FD2960E083E290E00E94EB2960E08CE0CC
:1047500090E00E94EB2960E08DE090E00E94EB2960
:1047600019821A821B821C821D821E821F82188659
:1047700048E050E067E170E0CE0101960E94DB293D
:1047800040E050E0BA018FE190E00E94FD290E94D4
:10479000350E83E00E942E0E40E050E0BA018FE01B
:1047A00090E00E94FD2940E050E0BA0183E190E0F2
:1047B0000E94FD2982E090E00E94C7298093980220
:1047C00084E090E00E94D52990938C0280938B0224
:1047D0000E941613EFEFF6E721E0E150F040204091
:1047E000E1F700C000000E94161380918E0280FF46
:1047F0001EC06FEF7FEF90E080E00E94092A0E94C8
:10480000AB0D88E080935D0101CF60E0812F0E94B5
:104810005A05082F61E0812F0E945A05E12FF0E030
:10482000E755FD4F880F802B80831F5F18CF83E0F3
:1048300090E00E94C72990E00E94080D259A2D98CB
:1048400082E88093800089E1809381008FEF9FEF61
:1048500090938700809386000E944D0E0E944D0E1B
:1048600080918D02811185C088E090E00E94CF295F
:104870004B015C0183E290E00E94C729282F30E0C1
:1048800040E050E060E070E080E090E000E20E94F4
:104890001229282939294A295B29209309033093B1
:1048A0000A0340930B0350930C0360930D03709322
:1048B0000E0380930F03909310033091B602336080
:1048C0003093B6022C7F09F042C02DE220930903F9
:1048D00010920A032FEF20930B0320930C031092E6
:1048E0000D032DE230E04FEF5FEF60E00E944E0FCE
:1048F00088E090E00E94CF296B017C0183E290E088
:104900000E94C729282F30E040E050E060E070E0CE
:1049100080E090E00E941229B22FA32FF42FE52F00
:104920005B0197018601BC29A12BFE29E32BB093E3
:104930000903A0930A03F0930B03E0930C03609325
:104940000D03B0920E0380930F03909310030E9407
:10495000C5060E945A060E9458058091090380FFEF
:1049600005C060E0869586950E94771081E080936F
:104970008D0280914A03811102C00E94232785E4A1
:1049800091E090934F0380934E03B8E14B2E512C4E
:1049900018E9612E12E0712E04E0C02ED12C83EABA
:1049A000A82E82E0B82E8091620310E4853009F4CD
:1049B0007FC00E94161309E912E0AEE8EA2EA2E0D9
:1049C000FA2ED701F80191918D91AE16BF0609F428
:1049D0007BC09817C1F390914A039987912CD70116
:1049E0008D907D01F80181918F01881541F1312C65
:1049F0002224239488258A878A858221C1F0F9851B
:104A0000FF23A9F039829A820E94A7049C838B839A
:104A100021E02D8391E0882D822109F490E09E838E
:104A200049815A816B817C818D810E94272033943A
:104A3000220C48E03412E0CFF80131978082939441
:104A40008AE09812CCCF0E94BD0942C080916203D7
:104A5000843021F180E00E944006109252030FB68C
:104A6000F894A895409260000FBE1093600083B741
:104A7000817F846083BF83B7816083BF789488958A
:104A800083B78E7F83BF0FB6F894A895809160009E
:104A9000886180936000109260000FBE0E94161320
:104AA000EEE8F2E08191811156C16E167F06D1F7D2
:104AB00080916203853009F4C9CF0E9423150E94BA
:104AC0004D0E0E94260575CF981385CF0E94B22007
:104AD0008091B502882309F465C08091B402E09109
:104AE0000903E695E695E81BE093B002823009F0F1
:104AF0008AC0F0E0E356FD4FE4910E2F10E0FEE790
:104B0000EF2EF7E0FF2E8091B102882361F0109222
:104B1000B1020E94D7099093AF028093AE02109227
:104B2000B3021092B2020E94D709E091AE02F09156
:104B3000AF029C012E1B3F0B2F3F3F4798F5209162
:104B4000A5022223B1F01092A5022091A302309178
:104B5000A402821B930B8F3F9F4758F4205D3A4875
:104B60003093A4022093A3028091B60288608093C0
:104B7000B6028090B2029090B302E00FF11FF09362
:104B8000AF02E093AE028EEA92E0F70109958091C0
:104B9000B2029091B302892B29F4892819F0F1E02F
:104BA000F093A50290904A03992019F00E94D62014
:104BB000982E8091AC02882351F01092AC02809123
:104BC0001403809315038091120380931303E12C47
:104BD0008091AB02E81608F482C080914A038823D2
:104BE00019F00E94D620982A91100E94BD090E94B7
:104BF00026059091AD02891709F4D5CE8093AD02B8
:104C00000E949B04D0CE863059F4F0E0E656FD4F6A
:104C1000E4910E2F10E0EEE6EE2EE7E0FE2E73CFCD
:104C2000893061F4E695F0E0E956FD4FE4910E2FEE
:104C300010E07CE6E72E79E0F72E65CF8F3061F447
:104C4000E695F0E0EC56FD4FE4910E2F10E063EE98
:104C5000E62E68E0F62E57CF853159F4F0E0EF5696
:104C6000FD4FE4910E2F10E05DE5E52E58E0F52EA6
:104C70004ACF08E210E022EEE22E27E0F22E883141
:104C800009F441CF833249F4EFE8F2E00591149141
:104C90004AEAE42E46E0F42E36CF04EF11E09BEA18
:104CA000E92E97E0F92E843209F42DCF853281F474
:104CB0008E2F63E00E94C928E92FF0E0E457FD4FF2
:104CC000E4910E2F10E03FE6E32E3EE0F32E1BCFE3
:104CD00000ED17E089E8E82E84E0F82E14CF61E0BB
:104CE0008E2D0E945A05182F60E08E2D0E945A05C5
:104CF000E12FEE0F8E2B0E2D10E0D801A755BD4FE2
:104D0000EC919E2F9370891721F1EE0FEE0FE82B97
:104D1000EC938091A8028E0DEF70F0E0E255FE4F0B
:104D20000A551D4FF080D8019C91F90EFC92B3E01A
:104D300060E0BF1524F0EDEFFE161CF461E00E9468
:104D40007A058F2DFF0C990BB6010E94E928D80136
:104D50008C93E3943DCF80916103882309F4A8CE1E
:104D600040E149BD82E189BD09B400FEFDCF8091DB
:104D7000D8008F7D8093D8008091E000826080937E
:104D8000E0008091E00081FDFCCF0E94231590CED1
:104D90008EE1489B02C08150E1F7489BFECF089509
:104DA000589880E28A95F1F7589A0895FC013BE003
:104DB0003A95F1F798E020E080E031E040E14A9553
:104DC000F1F7880F489B02C08160232742E04A9593
:104DD000F1F7000040E14A95F1F7915079F790E141
:104DE0009A95F1F799B132E03A95F1F7000040E178
:104DF0004A95F1F7917092272081920F9083089540
:104E0000A1E0B0E0E6E0F7E20C948E2819828C0174
:104E10007C01E60EF11C0E151F0541F481E099811D
:104E2000911180E02196E6E00C94AA280E94C82601
:104E3000CE0101960E94D626F80181938F01EBCF17
:104E4000509A589A08955098589AE89AE9E6F0E0EE
:104E500080818C7F808308956150770B91E001C041
:104E6000990F6A95EAF720E031E0911108C02223FA
:104E700091F0589A80E28A95F1F758980895492F51
:104E8000482339F0589A232740E24A95F1F796953E
:104E9000ECCF5898F9CF5898EDCFFF920F931F930E
:104EA000CF93DF93EC018C01060F111DC017D107C2
:104EB00029F4CDB7DEB7E5E00C94AB28F9900E9459
:104EC000D02668E08F2D0E942C27F0CF1F920F92E2
:104ED0000FB60F9211240F931F932F933F934F936D
:104EE0005F936F937F938F939F93AF93BF93EF9352
:104EF000FF93CF93DF930F92CDB7DEB719820E9455
:104F0000C826CE0101960E94D626082F0695069542
:104F10000695282F22952570902F9570290F922F96
:104F2000937026952695920F982797708981982BD4
:104F300009F05CC0093008F059C080E18A95F1F7AA
:104F4000589A509A82E08A95F1F700C0589888E004
:104F5000089F80011124D801AC5FBE4F1696ED91D9
:104F6000FC9117973097A9F060919F017091A00173
:104F700014962D913C911597260F371F11968D9100
:104F80009C911297680F791F13964C9113978C91EF
:104F90000995F801EC5FFE4F6381662351F0209183
:104FA0009F013091A00184819581820F931F0E94FF
:104FB0004D270E94D02680E18A95F1F758985098A5
:104FC000589A80E18A95F1F7F801EC5FFE4F608115
:104FD000662351F020919F013091A001818192813F
:104FE000820F931F0E9400270E94C8260F90DF9116
:104FF000CF91FF91EF91BF91AF919F918F917F9151
:105000006F915F914F913F912F911F910F910F9051
:105010000FBE0F901F9018950F931F93CF93DF93A0
:10502000EC0109970CF04CC0F894509A589885E020
:105030008A95F1F700009C2F969595708C2F8570BE
:10504000980F892F83709695969523E0CC0FDD1FDE
:105050002A95E1F7980F8E01092B0E94D02600C0F7
:1050600068E0802F0E942C2780E18A95F1F7509804
:10507000589A489B1EC087E090E048991CC0FE01EA
:10508000EC5FFE4F63816623F9F020919F01309120
:10509000A00184819581820F931F0E9400278111B6
:1050A00013C0509A589A7894DF91CF911F910F9125
:1050B000089500C0DECF019729F4509A589A789449
:1050C00080E0F2CF00C0D9CF0E94C82680E28A9546
:1050D000F1F75898509A80E18A95F1F7CC5FDE4F4E
:1050E0006881662351F020919F013091A001898150
:1050F0009A81820F931F0E944D270E94D026789498
:1051000081E0D2CF2F923F924F925F926F927F9227
:105110008F929F92AF92BF92CF92DF92EF92FF92C7
:105120000F931F93CF93DF93CDB7DEB7CA1BDB0B73
:105130000FB6F894DEBF0FBECDBF09942A88398818
:1051400048885F846E847D848C849B84AA84B9841F
:10515000C884DF80EE80FD800C811B81AA81B9812B
:10516000CE0FD11D0FB6F894DEBF0FBECDBFED013F
:105170000895DB018F939F930E943E2ABF91AF91C8
:10518000A29F800D911DA39F900DB29F900D1124A1
:105190000895991B79E004C0991F961708F0961B93
:1051A000881F7A95C9F780950895AA1BBB1B51E10A
:1051B00007C0AA1FBB1FA617B70710F0A61BB70B87
:1051C000881F991F5A95A9F780959095BC01CD012C
:1051D000089597FB072E16F4009407D077FD09D0A9
:1051E0000E94D52807FC05D03EF4909581959F4FED
:1051F0000895709561957F4F0895EE0FFF1F0590FC
:10520000F491E02D09940E94732A332312F48A1B2F
:105210009B0B0C940D290E94732AB7FF0895821BE3
:10522000930B0895002E083090F0982F872F762F3B
:10523000652F542F432F322F22270850F4CF220FEF
:10524000331F441F551F661F771F881F991F0A951C
:10525000B2F7002D089597FD1094002E083098F0B5
:105260000850232F342F452F562F672F782F892F43
:10527000912DF4CF159497958795779567955795C8
:105280004795379527950A95AAF71124002D08957B
:105290008F929F92AF92BF92CF92DF92EF92FF9246
:1052A000CF93DF93EC01688179818A819B816115BD
:1052B00071058105910521F464E279ED8BE597E0B4
:1052C0002DE133EF41E050E00E941F2A49015A01CD
:1052D0009B01AC01A7EAB1E40E943E2A6B017C016C
:1052E000ACEEB4EFA50194010E944C2ADC01CB0185
:1052F0008C0D9D1DAE1DBF1DB7FF03C00197A109F9
:10530000B04888839983AA83BB839F77DF91CF912D
:10531000FF90EF90DF90CF90BF90AF909F908F90D5
:1053200008950E944829089580E091E00E9448294C
:105330000895B0E0A0E08093000190930101A09354
:105340000201B09303010895FC014150504030F038
:1053500001900616D1F73197CF0108958827992734
:105360000895FB01DC0104C08D910190801921F4A6
:1053700041505040C8F7881B990B0895FB01DC0190
:1053800002C001900D9241505040D8F70895F9990C
:10539000FECF92BD81BDF89A992780B50895A6E108
:1053A000B0E044E050E00C94112AA8E1B0E042E003
:1053B00050E00C94112ADC01A40FB51F415050405D
:1053C00048F0CB01840F951F2E910E94EC2941508B
:1053D0005040D0F70895262FF999FECF92BD81BD98
:1053E000F89A019700B4021639F01FBA20BD0FB623
:1053F000F894FA9AF99A0FBE08950396272F0E94FF
:10540000EC290E94EB29252F0E94EC29242F0C94D3
:10541000EC290196272F0E94EC290C94EB29DC0142
:10542000CB01FC01F999FECF06C0F2BDE1BDF89AAF
:10543000319600B40D9241505040B8F70895052EB2
:1054400097FB1EF400940E94362A57FD07D00E9455
:10545000512A07FC03D04EF40C94362A50954095FF
:10546000309521953F4F4F4F5F4F08959095809510
:10547000709561957F4F8F4F9F4F08950E94732ABB
:10548000A59F900DB49F900DA49F800D911D112498
:105490000895B7FF0C943E2A0E943E2A821B930B6C
:1054A0000895A1E21A2EAA1BBB1BFD010DC0AA1F65
:1054B000BB1FEE1FFF1FA217B307E407F50720F07D
:1054C000A21BB30BE40BF50B661F771F881F991FF8
:1054D0001A9469F760957095809590959B01AC0141
:1054E000BD01CF010895A29FB001B39FC001A39F4A
:1054F000700D811D1124911DB29F700D811D11240D
:10550000911D0895F894FFCF1C164416E317441616
:10551000E31777169816E3179517A2172B1A2F1A69
:10552000201A271A331A371A3B1A921A071B9A1A8B
:10553000641A681A9E1A6C1AA21AAE1A781A001BFC
:105540007C1AB21A801AB61ADE1A841ABA1AE51A26
:105550008A1AC01AC81A701AA61A741AAA1A8E1AA7
:10556000C41AD41AEE1AFE1A5E1A961A0E1B291CB9
:10557000291C611C611C091D891C891C891C251D95
:10558000AD1DBC1DBC1D191B441B491B4E1B531BD1
:0C559000581B5D1B621B671B6C1B711B12
:10559C0001000000000000010000000000000005F8
:1055AC0001000000000000010600000000000008DF
:1055BC0007000000000000000000A209040F00001A
:1055CC000000000001130000000000000B1400009C
:1055DC000000000001B304970D8B048A04900D01A8
:1055EC00191A1B1C1D1E1F20212201020100100074
:1055FC00101000000100818283E200E900EA00B58E
:10560C0000B600B700CD008301CC008A0192019452
:10561C00012102230224022502260227022A02B3B8
:10562C0000B4006F0070009F01CB019F02A0024BE1
:10563C00023132673497F4F1F0373392939500FFCF
:10564C000100010000FFFF0000010001FF0000014C
:10565C00020202020606060909090909090F0F0FC1
:10566C000F0F0F15151518191919191919191919C9
:0A567C0019232425252525252500E6
:00000001FF
